{
	"data": {
		"bytecode": {
			"linkReferences": {},
			"object": "6080604052348015600e575f80fd5b506107f08061001c5f395ff3fe608060405234801561000f575f80fd5b5060043610610055575f3560e01c80636057361d146100595780636f760f41146100755780638733a20b146100915780639e7a13ad146100af578063a896dcc7146100e0575b5f80fd5b610073600480360381019061006e919061027a565b6100fe565b005b61008f600480360381019061008a91906103e1565b610110565b005b610099610171565b6040516100a6919061044a565b60405180910390f35b6100c960048036038101906100c4919061027a565b610179565b6040516100d79291906104c3565b60405180910390f35b6100e861022e565b6040516100f5919061044a565b60405180910390f35b805f8190555061010c61022e565b5050565b6001604051806040016040528084815260200183815250908060018154018082558091505060019003905f5260205f2090600202015f909190919091505f820151815f01908161016091906106eb565b506020820151816001015550505050565b5f6002905090565b60018181548110610188575f80fd5b905f5260205f2090600202015f91509050805f0180546101a79061051e565b80601f01602080910402602001604051908101604052809291908181526020018280546101d39061051e565b801561021e5780601f106101f55761010080835404028352916020019161021e565b820191905f5260205f20905b81548152906001019060200180831161020157829003601f168201915b5050505050908060010154905082565b5f8054905090565b5f604051905090565b5f80fd5b5f80fd5b5f819050919050565b61025981610247565b8114610263575f80fd5b50565b5f8135905061027481610250565b92915050565b5f6020828403121561028f5761028e61023f565b5b5f61029c84828501610266565b91505092915050565b5f80fd5b5f80fd5b5f601f19601f8301169050919050565b7f4e487b71000000000000000000000000000000000000000000000000000000005f52604160045260245ffd5b6102f3826102ad565b810181811067ffffffffffffffff82111715610312576103116102bd565b5b80604052505050565b5f610324610236565b905061033082826102ea565b919050565b5f67ffffffffffffffff82111561034f5761034e6102bd565b5b610358826102ad565b9050602081019050919050565b828183375f83830152505050565b5f61038561038084610335565b61031b565b9050828152602081018484840111156103a1576103a06102a9565b5b6103ac848285610365565b509392505050565b5f82601f8301126103c8576103c76102a5565b5b81356103d8848260208601610373565b91505092915050565b5f80604083850312156103f7576103f661023f565b5b5f83013567ffffffffffffffff81111561041457610413610243565b5b610420858286016103b4565b925050602061043185828601610266565b9150509250929050565b61044481610247565b82525050565b5f60208201905061045d5f83018461043b565b92915050565b5f81519050919050565b5f82825260208201905092915050565b8281835e5f83830152505050565b5f61049582610463565b61049f818561046d565b93506104af81856020860161047d565b6104b8816102ad565b840191505092915050565b5f6040820190508181035f8301526104db818561048b565b90506104ea602083018461043b565b9392505050565b7f4e487b71000000000000000000000000000000000000000000000000000000005f52602260045260245ffd5b5f600282049050600182168061053557607f821691505b602082108103610548576105476104f1565b5b50919050565b5f819050815f5260205f209050919050565b5f6020601f8301049050919050565b5f82821b905092915050565b5f600883026105aa7fffffffffffffffffffffffffffffffffffffffffffffffffffffffffffffffff8261056f565b6105b4868361056f565b95508019841693508086168417925050509392505050565b5f819050919050565b5f6105ef6105ea6105e584610247565b6105cc565b610247565b9050919050565b5f819050919050565b610608836105d5565b61061c610614826105f6565b84845461057b565b825550505050565b5f90565b610630610624565b61063b8184846105ff565b505050565b5b8181101561065e576106535f82610628565b600181019050610641565b5050565b601f8211156106a3576106748161054e565b61067d84610560565b8101602085101561068c578190505b6106a061069885610560565b830182610640565b50505b505050565b5f82821c905092915050565b5f6106c35f19846008026106a8565b1980831691505092915050565b5f6106db83836106b4565b9150826002028217905092915050565b6106f482610463565b67ffffffffffffffff81111561070d5761070c6102bd565b5b610717825461051e565b610722828285610662565b5f60209050601f831160018114610753575f8415610741578287015190505b61074b85826106d0565b8655506107b2565b601f1984166107618661054e565b5f5b8281101561078857848901518255600182019150602085019450602081019050610763565b868310156107a557848901516107a1601f8916826106b4565b8355505b6001600288020188555050505b50505050505056fea2646970667358221220bb1ae8d15c9f6163b16d40e1223dc68a57c4995b7ed34a2a531188096c76b6a064736f6c63430008190033",
			"opcodes": "PUSH1 0x80 PUSH1 0x40 MSTORE CALLVALUE DUP1 ISZERO PUSH1 0xE JUMPI PUSH0 DUP1 REVERT JUMPDEST POP PUSH2 0x7F0 DUP1 PUSH2 0x1C PUSH0 CODECOPY PUSH0 RETURN INVALID PUSH1 0x80 PUSH1 0x40 MSTORE CALLVALUE DUP1 ISZERO PUSH2 0xF JUMPI PUSH0 DUP1 REVERT JUMPDEST POP PUSH1 0x4 CALLDATASIZE LT PUSH2 0x55 JUMPI PUSH0 CALLDATALOAD PUSH1 0xE0 SHR DUP1 PUSH4 0x6057361D EQ PUSH2 0x59 JUMPI DUP1 PUSH4 0x6F760F41 EQ PUSH2 0x75 JUMPI DUP1 PUSH4 0x8733A20B EQ PUSH2 0x91 JUMPI DUP1 PUSH4 0x9E7A13AD EQ PUSH2 0xAF JUMPI DUP1 PUSH4 0xA896DCC7 EQ PUSH2 0xE0 JUMPI JUMPDEST PUSH0 DUP1 REVERT JUMPDEST PUSH2 0x73 PUSH1 0x4 DUP1 CALLDATASIZE SUB DUP2 ADD SWAP1 PUSH2 0x6E SWAP2 SWAP1 PUSH2 0x27A JUMP JUMPDEST PUSH2 0xFE JUMP JUMPDEST STOP JUMPDEST PUSH2 0x8F PUSH1 0x4 DUP1 CALLDATASIZE SUB DUP2 ADD SWAP1 PUSH2 0x8A SWAP2 SWAP1 PUSH2 0x3E1 JUMP JUMPDEST PUSH2 0x110 JUMP JUMPDEST STOP JUMPDEST PUSH2 0x99 PUSH2 0x171 JUMP JUMPDEST PUSH1 0x40 MLOAD PUSH2 0xA6 SWAP2 SWAP1 PUSH2 0x44A JUMP JUMPDEST PUSH1 0x40 MLOAD DUP1 SWAP2 SUB SWAP1 RETURN JUMPDEST PUSH2 0xC9 PUSH1 0x4 DUP1 CALLDATASIZE SUB DUP2 ADD SWAP1 PUSH2 0xC4 SWAP2 SWAP1 PUSH2 0x27A JUMP JUMPDEST PUSH2 0x179 JUMP JUMPDEST PUSH1 0x40 MLOAD PUSH2 0xD7 SWAP3 SWAP2 SWAP1 PUSH2 0x4C3 JUMP JUMPDEST PUSH1 0x40 MLOAD DUP1 SWAP2 SUB SWAP1 RETURN JUMPDEST PUSH2 0xE8 PUSH2 0x22E JUMP JUMPDEST PUSH1 0x40 MLOAD PUSH2 0xF5 SWAP2 SWAP1 PUSH2 0x44A JUMP JUMPDEST PUSH1 0x40 MLOAD DUP1 SWAP2 SUB SWAP1 RETURN JUMPDEST DUP1 PUSH0 DUP2 SWAP1 SSTORE POP PUSH2 0x10C PUSH2 0x22E JUMP JUMPDEST POP POP JUMP JUMPDEST PUSH1 0x1 PUSH1 0x40 MLOAD DUP1 PUSH1 0x40 ADD PUSH1 0x40 MSTORE DUP1 DUP5 DUP2 MSTORE PUSH1 0x20 ADD DUP4 DUP2 MSTORE POP SWAP1 DUP1 PUSH1 0x1 DUP2 SLOAD ADD DUP1 DUP3 SSTORE DUP1 SWAP2 POP POP PUSH1 0x1 SWAP1 SUB SWAP1 PUSH0 MSTORE PUSH1 0x20 PUSH0 KECCAK256 SWAP1 PUSH1 0x2 MUL ADD PUSH0 SWAP1 SWAP2 SWAP1 SWAP2 SWAP1 SWAP2 POP PUSH0 DUP3 ADD MLOAD DUP2 PUSH0 ADD SWAP1 DUP2 PUSH2 0x160 SWAP2 SWAP1 PUSH2 0x6EB JUMP JUMPDEST POP PUSH1 0x20 DUP3 ADD MLOAD DUP2 PUSH1 0x1 ADD SSTORE POP POP POP POP JUMP JUMPDEST PUSH0 PUSH1 0x2 SWAP1 POP SWAP1 JUMP JUMPDEST PUSH1 0x1 DUP2 DUP2 SLOAD DUP2 LT PUSH2 0x188 JUMPI PUSH0 DUP1 REVERT JUMPDEST SWAP1 PUSH0 MSTORE PUSH1 0x20 PUSH0 KECCAK256 SWAP1 PUSH1 0x2 MUL ADD PUSH0 SWAP2 POP SWAP1 POP DUP1 PUSH0 ADD DUP1 SLOAD PUSH2 0x1A7 SWAP1 PUSH2 0x51E JUMP JUMPDEST DUP1 PUSH1 0x1F ADD PUSH1 0x20 DUP1 SWAP2 DIV MUL PUSH1 0x20 ADD PUSH1 0x40 MLOAD SWAP1 DUP2 ADD PUSH1 0x40 MSTORE DUP1 SWAP3 SWAP2 SWAP1 DUP2 DUP2 MSTORE PUSH1 0x20 ADD DUP3 DUP1 SLOAD PUSH2 0x1D3 SWAP1 PUSH2 0x51E JUMP JUMPDEST DUP1 ISZERO PUSH2 0x21E JUMPI DUP1 PUSH1 0x1F LT PUSH2 0x1F5 JUMPI PUSH2 0x100 DUP1 DUP4 SLOAD DIV MUL DUP4 MSTORE SWAP2 PUSH1 0x20 ADD SWAP2 PUSH2 0x21E JUMP JUMPDEST DUP3 ADD SWAP2 SWAP1 PUSH0 MSTORE PUSH1 0x20 PUSH0 KECCAK256 SWAP1 JUMPDEST DUP2 SLOAD DUP2 MSTORE SWAP1 PUSH1 0x1 ADD SWAP1 PUSH1 0x20 ADD DUP1 DUP4 GT PUSH2 0x201 JUMPI DUP3 SWAP1 SUB PUSH1 0x1F AND DUP3 ADD SWAP2 JUMPDEST POP POP POP POP POP SWAP1 DUP1 PUSH1 0x1 ADD SLOAD SWAP1 POP DUP3 JUMP JUMPDEST PUSH0 DUP1 SLOAD SWAP1 POP SWAP1 JUMP JUMPDEST PUSH0 PUSH1 0x40 MLOAD SWAP1 POP SWAP1 JUMP JUMPDEST PUSH0 DUP1 REVERT JUMPDEST PUSH0 DUP1 REVERT JUMPDEST PUSH0 DUP2 SWAP1 POP SWAP2 SWAP1 POP JUMP JUMPDEST PUSH2 0x259 DUP2 PUSH2 0x247 JUMP JUMPDEST DUP2 EQ PUSH2 0x263 JUMPI PUSH0 DUP1 REVERT JUMPDEST POP JUMP JUMPDEST PUSH0 DUP2 CALLDATALOAD SWAP1 POP PUSH2 0x274 DUP2 PUSH2 0x250 JUMP JUMPDEST SWAP3 SWAP2 POP POP JUMP JUMPDEST PUSH0 PUSH1 0x20 DUP3 DUP5 SUB SLT ISZERO PUSH2 0x28F JUMPI PUSH2 0x28E PUSH2 0x23F JUMP JUMPDEST JUMPDEST PUSH0 PUSH2 0x29C DUP5 DUP3 DUP6 ADD PUSH2 0x266 JUMP JUMPDEST SWAP2 POP POP SWAP3 SWAP2 POP POP JUMP JUMPDEST PUSH0 DUP1 REVERT JUMPDEST PUSH0 DUP1 REVERT JUMPDEST PUSH0 PUSH1 0x1F NOT PUSH1 0x1F DUP4 ADD AND SWAP1 POP SWAP2 SWAP1 POP JUMP JUMPDEST PUSH32 0x4E487B7100000000000000000000000000000000000000000000000000000000 PUSH0 MSTORE PUSH1 0x41 PUSH1 0x4 MSTORE PUSH1 0x24 PUSH0 REVERT JUMPDEST PUSH2 0x2F3 DUP3 PUSH2 0x2AD JUMP JUMPDEST DUP2 ADD DUP2 DUP2 LT PUSH8 0xFFFFFFFFFFFFFFFF DUP3 GT OR ISZERO PUSH2 0x312 JUMPI PUSH2 0x311 PUSH2 0x2BD JUMP JUMPDEST JUMPDEST DUP1 PUSH1 0x40 MSTORE POP POP POP JUMP JUMPDEST PUSH0 PUSH2 0x324 PUSH2 0x236 JUMP JUMPDEST SWAP1 POP PUSH2 0x330 DUP3 DUP3 PUSH2 0x2EA JUMP JUMPDEST SWAP2 SWAP1 POP JUMP JUMPDEST PUSH0 PUSH8 0xFFFFFFFFFFFFFFFF DUP3 GT ISZERO PUSH2 0x34F JUMPI PUSH2 0x34E PUSH2 0x2BD JUMP JUMPDEST JUMPDEST PUSH2 0x358 DUP3 PUSH2 0x2AD JUMP JUMPDEST SWAP1 POP PUSH1 0x20 DUP2 ADD SWAP1 POP SWAP2 SWAP1 POP JUMP JUMPDEST DUP3 DUP2 DUP4 CALLDATACOPY PUSH0 DUP4 DUP4 ADD MSTORE POP POP POP JUMP JUMPDEST PUSH0 PUSH2 0x385 PUSH2 0x380 DUP5 PUSH2 0x335 JUMP JUMPDEST PUSH2 0x31B JUMP JUMPDEST SWAP1 POP DUP3 DUP2 MSTORE PUSH1 0x20 DUP2 ADD DUP5 DUP5 DUP5 ADD GT ISZERO PUSH2 0x3A1 JUMPI PUSH2 0x3A0 PUSH2 0x2A9 JUMP JUMPDEST JUMPDEST PUSH2 0x3AC DUP5 DUP3 DUP6 PUSH2 0x365 JUMP JUMPDEST POP SWAP4 SWAP3 POP POP POP JUMP JUMPDEST PUSH0 DUP3 PUSH1 0x1F DUP4 ADD SLT PUSH2 0x3C8 JUMPI PUSH2 0x3C7 PUSH2 0x2A5 JUMP JUMPDEST JUMPDEST DUP2 CALLDATALOAD PUSH2 0x3D8 DUP5 DUP3 PUSH1 0x20 DUP7 ADD PUSH2 0x373 JUMP JUMPDEST SWAP2 POP POP SWAP3 SWAP2 POP POP JUMP JUMPDEST PUSH0 DUP1 PUSH1 0x40 DUP4 DUP6 SUB SLT ISZERO PUSH2 0x3F7 JUMPI PUSH2 0x3F6 PUSH2 0x23F JUMP JUMPDEST JUMPDEST PUSH0 DUP4 ADD CALLDATALOAD PUSH8 0xFFFFFFFFFFFFFFFF DUP2 GT ISZERO PUSH2 0x414 JUMPI PUSH2 0x413 PUSH2 0x243 JUMP JUMPDEST JUMPDEST PUSH2 0x420 DUP6 DUP3 DUP7 ADD PUSH2 0x3B4 JUMP JUMPDEST SWAP3 POP POP PUSH1 0x20 PUSH2 0x431 DUP6 DUP3 DUP7 ADD PUSH2 0x266 JUMP JUMPDEST SWAP2 POP POP SWAP3 POP SWAP3 SWAP1 POP JUMP JUMPDEST PUSH2 0x444 DUP2 PUSH2 0x247 JUMP JUMPDEST DUP3 MSTORE POP POP JUMP JUMPDEST PUSH0 PUSH1 0x20 DUP3 ADD SWAP1 POP PUSH2 0x45D PUSH0 DUP4 ADD DUP5 PUSH2 0x43B JUMP JUMPDEST SWAP3 SWAP2 POP POP JUMP JUMPDEST PUSH0 DUP2 MLOAD SWAP1 POP SWAP2 SWAP1 POP JUMP JUMPDEST PUSH0 DUP3 DUP3 MSTORE PUSH1 0x20 DUP3 ADD SWAP1 POP SWAP3 SWAP2 POP POP JUMP JUMPDEST DUP3 DUP2 DUP4 MCOPY PUSH0 DUP4 DUP4 ADD MSTORE POP POP POP JUMP JUMPDEST PUSH0 PUSH2 0x495 DUP3 PUSH2 0x463 JUMP JUMPDEST PUSH2 0x49F DUP2 DUP6 PUSH2 0x46D JUMP JUMPDEST SWAP4 POP PUSH2 0x4AF DUP2 DUP6 PUSH1 0x20 DUP7 ADD PUSH2 0x47D JUMP JUMPDEST PUSH2 0x4B8 DUP2 PUSH2 0x2AD JUMP JUMPDEST DUP5 ADD SWAP2 POP POP SWAP3 SWAP2 POP POP JUMP JUMPDEST PUSH0 PUSH1 0x40 DUP3 ADD SWAP1 POP DUP2 DUP2 SUB PUSH0 DUP4 ADD MSTORE PUSH2 0x4DB DUP2 DUP6 PUSH2 0x48B JUMP JUMPDEST SWAP1 POP PUSH2 0x4EA PUSH1 0x20 DUP4 ADD DUP5 PUSH2 0x43B JUMP JUMPDEST SWAP4 SWAP3 POP POP POP JUMP JUMPDEST PUSH32 0x4E487B7100000000000000000000000000000000000000000000000000000000 PUSH0 MSTORE PUSH1 0x22 PUSH1 0x4 MSTORE PUSH1 0x24 PUSH0 REVERT JUMPDEST PUSH0 PUSH1 0x2 DUP3 DIV SWAP1 POP PUSH1 0x1 DUP3 AND DUP1 PUSH2 0x535 JUMPI PUSH1 0x7F DUP3 AND SWAP2 POP JUMPDEST PUSH1 0x20 DUP3 LT DUP2 SUB PUSH2 0x548 JUMPI PUSH2 0x547 PUSH2 0x4F1 JUMP JUMPDEST JUMPDEST POP SWAP2 SWAP1 POP JUMP JUMPDEST PUSH0 DUP2 SWAP1 POP DUP2 PUSH0 MSTORE PUSH1 0x20 PUSH0 KECCAK256 SWAP1 POP SWAP2 SWAP1 POP JUMP JUMPDEST PUSH0 PUSH1 0x20 PUSH1 0x1F DUP4 ADD DIV SWAP1 POP SWAP2 SWAP1 POP JUMP JUMPDEST PUSH0 DUP3 DUP3 SHL SWAP1 POP SWAP3 SWAP2 POP POP JUMP JUMPDEST PUSH0 PUSH1 0x8 DUP4 MUL PUSH2 0x5AA PUSH32 0xFFFFFFFFFFFFFFFFFFFFFFFFFFFFFFFFFFFFFFFFFFFFFFFFFFFFFFFFFFFFFFFF DUP3 PUSH2 0x56F JUMP JUMPDEST PUSH2 0x5B4 DUP7 DUP4 PUSH2 0x56F JUMP JUMPDEST SWAP6 POP DUP1 NOT DUP5 AND SWAP4 POP DUP1 DUP7 AND DUP5 OR SWAP3 POP POP POP SWAP4 SWAP3 POP POP POP JUMP JUMPDEST PUSH0 DUP2 SWAP1 POP SWAP2 SWAP1 POP JUMP JUMPDEST PUSH0 PUSH2 0x5EF PUSH2 0x5EA PUSH2 0x5E5 DUP5 PUSH2 0x247 JUMP JUMPDEST PUSH2 0x5CC JUMP JUMPDEST PUSH2 0x247 JUMP JUMPDEST SWAP1 POP SWAP2 SWAP1 POP JUMP JUMPDEST PUSH0 DUP2 SWAP1 POP SWAP2 SWAP1 POP JUMP JUMPDEST PUSH2 0x608 DUP4 PUSH2 0x5D5 JUMP JUMPDEST PUSH2 0x61C PUSH2 0x614 DUP3 PUSH2 0x5F6 JUMP JUMPDEST DUP5 DUP5 SLOAD PUSH2 0x57B JUMP JUMPDEST DUP3 SSTORE POP POP POP POP JUMP JUMPDEST PUSH0 SWAP1 JUMP JUMPDEST PUSH2 0x630 PUSH2 0x624 JUMP JUMPDEST PUSH2 0x63B DUP2 DUP5 DUP5 PUSH2 0x5FF JUMP JUMPDEST POP POP POP JUMP JUMPDEST JUMPDEST DUP2 DUP2 LT ISZERO PUSH2 0x65E JUMPI PUSH2 0x653 PUSH0 DUP3 PUSH2 0x628 JUMP JUMPDEST PUSH1 0x1 DUP2 ADD SWAP1 POP PUSH2 0x641 JUMP JUMPDEST POP POP JUMP JUMPDEST PUSH1 0x1F DUP3 GT ISZERO PUSH2 0x6A3 JUMPI PUSH2 0x674 DUP2 PUSH2 0x54E JUMP JUMPDEST PUSH2 0x67D DUP5 PUSH2 0x560 JUMP JUMPDEST DUP2 ADD PUSH1 0x20 DUP6 LT ISZERO PUSH2 0x68C JUMPI DUP2 SWAP1 POP JUMPDEST PUSH2 0x6A0 PUSH2 0x698 DUP6 PUSH2 0x560 JUMP JUMPDEST DUP4 ADD DUP3 PUSH2 0x640 JUMP JUMPDEST POP POP JUMPDEST POP POP POP JUMP JUMPDEST PUSH0 DUP3 DUP3 SHR SWAP1 POP SWAP3 SWAP2 POP POP JUMP JUMPDEST PUSH0 PUSH2 0x6C3 PUSH0 NOT DUP5 PUSH1 0x8 MUL PUSH2 0x6A8 JUMP JUMPDEST NOT DUP1 DUP4 AND SWAP2 POP POP SWAP3 SWAP2 POP POP JUMP JUMPDEST PUSH0 PUSH2 0x6DB DUP4 DUP4 PUSH2 0x6B4 JUMP JUMPDEST SWAP2 POP DUP3 PUSH1 0x2 MUL DUP3 OR SWAP1 POP SWAP3 SWAP2 POP POP JUMP JUMPDEST PUSH2 0x6F4 DUP3 PUSH2 0x463 JUMP JUMPDEST PUSH8 0xFFFFFFFFFFFFFFFF DUP2 GT ISZERO PUSH2 0x70D JUMPI PUSH2 0x70C PUSH2 0x2BD JUMP JUMPDEST JUMPDEST PUSH2 0x717 DUP3 SLOAD PUSH2 0x51E JUMP JUMPDEST PUSH2 0x722 DUP3 DUP3 DUP6 PUSH2 0x662 JUMP JUMPDEST PUSH0 PUSH1 0x20 SWAP1 POP PUSH1 0x1F DUP4 GT PUSH1 0x1 DUP2 EQ PUSH2 0x753 JUMPI PUSH0 DUP5 ISZERO PUSH2 0x741 JUMPI DUP3 DUP8 ADD MLOAD SWAP1 POP JUMPDEST PUSH2 0x74B DUP6 DUP3 PUSH2 0x6D0 JUMP JUMPDEST DUP7 SSTORE POP PUSH2 0x7B2 JUMP JUMPDEST PUSH1 0x1F NOT DUP5 AND PUSH2 0x761 DUP7 PUSH2 0x54E JUMP JUMPDEST PUSH0 JUMPDEST DUP3 DUP2 LT ISZERO PUSH2 0x788 JUMPI DUP5 DUP10 ADD MLOAD DUP3 SSTORE PUSH1 0x1 DUP3 ADD SWAP2 POP PUSH1 0x20 DUP6 ADD SWAP5 POP PUSH1 0x20 DUP2 ADD SWAP1 POP PUSH2 0x763 JUMP JUMPDEST DUP7 DUP4 LT ISZERO PUSH2 0x7A5 JUMPI DUP5 DUP10 ADD MLOAD PUSH2 0x7A1 PUSH1 0x1F DUP10 AND DUP3 PUSH2 0x6B4 JUMP JUMPDEST DUP4 SSTORE POP JUMPDEST PUSH1 0x1 PUSH1 0x2 DUP9 MUL ADD DUP9 SSTORE POP POP POP JUMPDEST POP POP POP POP POP POP JUMP INVALID LOG2 PUSH5 0x6970667358 0x22 SLT KECCAK256 0xBB BYTE 0xE8 0xD1 TLOAD SWAP16 PUSH2 0x63B1 PUSH14 0x40E1223DC68A57C4995B7ED34A2A MSTORE8 GT DUP9 MULMOD PUSH13 0x76B6A064736F6C634300081900 CALLER "
		},
		"gasEstimates": {
			"creation": {
				"codeDepositCost": "406400",
				"executionCost": "441",
				"totalCost": "406841"
			},
			"external": {
				"addLogic()": "354",
				"addPerson(string,uint256)": "infinite",
				"people(uint256)": "infinite",
				"readNum()": "2498",
				"store(uint256)": "24631"
			}
		},
		"methodIdentifiers": {
			"addLogic()": "8733a20b",
			"addPerson(string,uint256)": "6f760f41",
			"people(uint256)": "9e7a13ad",
			"readNum()": "a896dcc7",
			"store(uint256)": "6057361d"
		}
	},
	"abi": [
		{
			"inputs": [],
			"name": "addLogic",
			"outputs": [
				{
					"internalType": "uint256",
					"name": "",
					"type": "uint256"
				}
			],
			"stateMutability": "pure",
			"type": "function"
		},
		{
			"inputs": [
				{
					"internalType": "string",
					"name": "_name",
					"type": "string"
				},
				{
					"internalType": "uint256",
					"name": "_num",
					"type": "uint256"
				}
			],
			"name": "addPerson",
			"outputs": [],
			"stateMutability": "nonpayable",
			"type": "function"
		},
		{
			"inputs": [
				{
					"internalType": "uint256",
					"name": "",
					"type": "uint256"
				}
			],
			"name": "people",
			"outputs": [
				{
					"internalType": "string",
					"name": "name",
					"type": "string"
				},
				{
					"internalType": "uint256",
					"name": "num",
					"type": "uint256"
				}
			],
			"stateMutability": "view",
			"type": "function"
		},
		{
			"inputs": [],
			"name": "readNum",
			"outputs": [
				{
					"internalType": "uint256",
					"name": "",
					"type": "uint256"
				}
			],
			"stateMutability": "view",
			"type": "function"
		},
		{
			"inputs": [
				{
					"internalType": "uint256",
					"name": "_num",
					"type": "uint256"
				}
			],
			"name": "store",
			"outputs": [],
			"stateMutability": "nonpayable",
			"type": "function"
		}
	]
}